:020000040800F2
:1000000080040020450100084D0100084F01000850
:1000100051010008530100085501000800000000CC
:100020000000000000000000000000005701000870
:1000300059010008000000005B0100085D01000894
:100040005F0100085F0100085F0100085F01000810
:100050005F0100085F0100085F0100085F01000800
:100060005F0100085F0100085F0100085F010008F0
:100070005F0100085F0100085F0100085F010008E0
:100080005F0100085F0100085F0100085F010008D0
:100090005F0100085F0100085F0100085F010008C0
:1000A0005F0100085F0100085F0100085F010008B0
:1000B0005F0100085F0100085F0100085F010008A0
:1000C0005F0100085F0100085F0100085F01000890
:1000D0005F0100085F0100085F0100085F01000880
:1000E0005F0100085F0100085F0100085F01000870
:1000F0005F0100085F0100085F0100085F01000860
:100100005F0100085F0100085F0100085F0100084F
:100110005F0100085F0100085F0100085F0100083F
:100120005F0100085F0100085F0100085F0100082F
:10013000DFF80CD000F018F800480047350600083A
:10014000800400200648804706480047FEE7FEE797
:10015000FEE7FEE7FEE7FEE7FEE7FEE7FEE7FEE777
:100160001504000831010008064C074D06E0E06860
:1001700040F0010394E8070098471034AC42F6D3EE
:10018000FFF7DAFFE807000808080008F0B5CA78AA
:10019000002502F00F03D20601D58A7813430C78AC
:1001A0004FF00F0E0122ECB1D0F800400F8802FA98
:1001B00005F63740B74211D14FEA850C0EFA0CF71D
:1001C00024EA070703FA0CF43C43CF78282F02D027
:1001D000482F02D002E0466100E006616D1C082D48
:1001E000E4D304600C88FF2C1ED944685FF000063D
:1001F00006F1080702FA07F50F882F40AF420FD12A
:100200004FEA860C0EFA0CF7BC4303FA0CF73C439A
:10021000CF78282F00D14561CF78482F00D10561D4
:10022000761C082EE4D34460F0BDD8B1D1B1427938
:1002300083799A4201D1C379A3B103689A5C0A70A9
:100240004179491CC9B241710279914201D300211F
:100250004171C179491EC17141790172C1794172FF
:10026000012070470020704710B5002806D0437960
:100270008279934203D1C3790BB1002010BD046889
:10028000531C8371A15481790279914201D30021D9
:100290008171C179491CC171417A491C41720120A7
:1002A00010BD58B151B14AB10160027100214171D4
:1002B0008171C17101724172012070470020704745
:1002C000044A0029916901D0014300E08143916112
:1002D000704700000010024030B520494A6812F013
:1002E0000C031F4A03D0042B01D0082B22D002603C
:1002F0004A680F231B4C03EA1212A35C0268DA401F
:1003000042604B68072505EA1323E35C22FA03F3F6
:1003100083604B6805EAD323E35C22FA03F2C260F0
:100320004968032303EA9131231F595CB2FBF1F1C1
:10033000016130BD4A684B6802F470124FF002044C
:1003400013F4803F04EB924202D04B689B0301D52B
:10035000054B00E0024B5A43C9E700000010024081
:1003600000127A003400002000093D000CB5002185
:10037000264801910091026842F4803202604FF4F5
:10038000A063026802F400320092019A521C0192AA
:10039000009A12B9019A9A42F3D10268920333D5B6
:1003A000012100911A490A6842F010020A600A68A5
:1003B00022F003020A600A6842F002020A60416801
:1003C000416041684160416841F480614160416839
:1003D00021F47C114160416841F4E81141600168F9
:1003E00041F08071016001688901FCD5416821F00C
:1003F00003014160416841F0020141604168C1F37D
:1004000081010229FAD10CBD00910CBD00100240FF
:10041000002002400C48016841F001010160416880
:100420000A4A114041600168094A114001600168AF
:1004300021F480210160416821F4FE0141604FF404
:100440001F018160FFF792BF001002400000FFF81B
:10045000FFFFF6FE0029818902D041F4005101E03E
:1004600021F40051818170470246002012880A421F
:1004700000D001207047000030B50446008A85B0E6
:100480000D464CF6FF710840E98801432182A1899D
:100490004EF6F3100140A8882A8910436A890A435E
:1004A0001043A081A08A4FF6FF410840A98901436B
:1004B000A1826846FFF710FF1B48844201D10398D0
:1004C00000E00298A1890904002900EBC00101EBBA
:1004D0000010296802DA4FEA410101E04FEA810188
:1004E000B0FBF1F06422B0FBF2F14FEA01114FEAE8
:1004F00011136FF018056B4300EB8300A3891D04F3
:100500004FF0320306D503EBC000B0FBF2F000F071
:10051000070005E003EB0010B0FBF2F000F00F0065
:100520000843208105B030BD003801408088C0F309
:1005300008007047C1F308018180704702E008C8D5
:10054000121F08C1002AFAD170477047002001E04D
:1005500001C1121F002AFBD17047000070B5204C6A
:1005600000250126E07820B1012804D0022834D1EA
:100570002DE0A560E6701A491A48491CFFF755FEA0
:1005800020B36078A0F120015F290CD8A17920293F
:1005900023D2134A0C325054491CA171A2F10B0012
:1005A000A060A67010E00D2802D0082803D00BE050
:1005B000E570002070BDA07902280ED9401EA07100
:1005C0000948A0600320A0700220E07005E0A17837
:1005D000A06800F00BF800B9E670012070BD0000C3
:1005E0000400002064000020E307000810B538B1C3
:1005F00031B10E4C002263792BB1012B11D105E0F2
:100600004FF0FF3010BD22710123637123798B42BB
:1006100009D2C15C0648FFF727FE10B12079401CC3
:100620002071012010BD6271002010BD0400002067
:100630007000002000F02AF8102208490848FFF74F
:1006400030FE0649102210310648FFF72AFE00BF8F
:1006500000F09CF800F06AF8FAE70000440000207F
:10066000640000207000002070B5074D0446202172
:100670002846FFF7F9FE002804D02846FFF756FF6A
:100680002070012070BD00000038014010B586B018
:10069000012144F20500FFF713FE4FF40070ADF89E
:1006A000100003208DF812001820154C8DF813004F
:1006B00004A92046FFF76AFD2015ADF810000420BC
:1006C0008DF8130004A92046FFF760FD4FF4165083
:1006D00000900020ADF80400ADF80600ADF8080069
:1006E000ADF80C000C20074CADF80A006946204616
:1006F000FFF7C2FE01212046FFF7ACFE06B010BD99
:10070000000801400038014070B5074C05468021C3
:100710002046FFF7A9FE002804D029462046FFF70F
:1007200009FF012070BD00000038014070B5154C74
:1007300001250026607810B101280AD100E065701B
:100740001048FFF791FF20B121780F48FFF78CFD8B
:100750006670E07850B1012809D0022805D1A07850
:10076000FFF7D2FF002800D0E67070BDE5700549A4
:100770000548891C0C30FFF758FD0028F5D00220F1
:10078000E07070BD000000206400002070B5124CC5
:1007900000260225207830B1012805D002280AD091
:1007A000032814D10DE0A57103210C48FFF71EFFAB
:1007B00068B925700BE0FFF7D1FE40B90320207027
:1007C00005E00548A1790C30FFF710FF08B10120C2
:1007D00070BD2670002070BD04000020E0070008F6
:1007E0000D0A3E082008000008080008000000204C
:1007F000440000003C0500084C08000844000020AC
:100800003C0400004C05000800000000000000004F
:1008100000000000000000000D0A000000000000C1
:1008200000000000000000000000000000000000C8
:1008300000000000000000000204060800000000A4
:0C0840000102030401020304060708097A
:0400000508000131BD
:00000001FF
